:0A0C37000001020203030404050596
:10059A00E4F513F512F511F510F51BF51AF519F531
:1005AA0018C203C200C202C2011208B87E017F004B
:1005BA008E238F24752B01752C1275210175221C2F
:1005CA00752901752A43752D01752E6390E680E021
:1005DA0030E70E852125852226852927852A288028
:1005EA000C852925852A26852127852228EE54E08F
:1005FA0070030207157514007515807E017F008E41
:10060A00168F17C374F39FFF74019ECF2402CF3451
:10061A0000FEE48F0F8E0EF50DF50CF50BF50AF5BD
:10062A0009F508AF0FAE0EAD0DAC0CAB0BAA0AA9BB
:10063A0009A808C3120C26502AE515250BF582E5F0
:10064A0014350AF58374CDF0E4FAF9F8E50B2401C0
:10065A00F50BEA350AF50AE93509F509E83508F529
:10066A000880C0E4F50BF50AF509F508AF0FAE0EE0
:10067A00AD0DAC0CAB0BAA0AA909A808C3120C262B
:10068A005037E517250BF582E516350AF583E0FFA5
:10069A00E515250BF582E514350AF583EFF0E4FA42
:1006AA00F9F8E50B2401F50BEA350AF50AE93509EB
:1006BA00F509E83508F50880B385142385152474EF
:1006CA00002480FF740134FFFEC3E52C9FF52CE55E
:1006DA002B9EF52BC3E5269FF526E5259EF525C31A
:1006EA00E5289FF528E5279EF527C3E5229FF522F1
:1006FA00E5219EF521C3E52A9FF52AE5299EF529DC
:10070A00C3E52E9FF52EE52D9EF52DD2E843D82080
:10071A0090E668E04409F090E65CE0443DF0D2AF30
:10072A0090E680E020E105D205120AE790E680E033
:10073A0054F7F0538EF8C203300105120300C201C8
:10074A00300329120C495024C203120B6D200016E3
:10075A0090E682E030E704E020E1EF90E682E030C4
:10076A00E604E020E0E4120B16120C4B120C578040
:01077A00C7B7
:01077B00225B
:1003000090E6B9E070030203DC1470030204852454
:10031000FE700302051A24FB70030203D614700357
:100320000203D01470030203C41470030203CA242E
:10033000056003020586120C4D400302059290E60B
:10034000BBE024FE602C14604724FD60161460316D
:1003500024067066E52390E6B3F0E52490E6B4F059
:10036000020592E52B90E6B3F0E52C90E6B4F0029E
:100370000592E52590E6B3F0E52690E6B4F0020597
:1003800092E52790E6B3F0E52890E6B4F0020592F6
:1003900090E6BAE0FF120B42AA06A9077B01EA49E0
:1003A0004B600DEE90E6B3F0EF90E6B4F0020592EC
:1003B00090E6A0E04401F002059290E6A0E044013E
:1003C000F0020592120C14020592120C41020592E1
:1003D00012077C020592120C02020592120C4F4089
:1003E0000302059290E6B8E0247F602B14603C2461
:1003F00002600302047BA200E433FF25E0FFA202B7
:10040000E4334F90E740F0E4A3F090E68AF090E602
:100410008B7402F0020592E490E740F0A3F090E6BE
:100420008AF090E68B7402F002059290E6BCE054EC
:100430007EFF7E00E0D3948040067C007D01800436
:100440007C007D00EC4EFEED4F2437F582740C3EAF
:10045000F583E493FF3395E0FEEF24A1FFEE34E64D
:100460008F82F583E0540190E740F0E4A3F090E63A
:100470008AF090E68B7402F002059290E6A0E044C8
:1004800001F0020592120C51400302059290E6B869
:10049000E024FE601D2402600302059290E6BAE0AB
:1004A000B40105C20002059290E6A0E04401F0020A
:1004B000059290E6BAE0705990E6BCE0547EFF7E6B
:1004C00000E0D3948040067C007D0180047C007DA8
:1004D00000EC4EFEED4F2437F582740C3EF583E4BC
:1004E00093FF3395E0FEEF24A1FFEE34E68F82F513
:1004F00083E054FEF090E6BCE05480FF13131354E5
:100500001FFFE0540F2F90E683F0E04420F0020537
:100510009290E6A0E04401F08078120C5350739062
:10052000E6B8E024FE60202402706790E6BAE0B4EA
:100530000104D200805C90E6BAE06402605490E668
:10054000A0E04401F0804B90E6BCE0547EFF7E00CA
:10055000E0D3948040067C007D0180047C007D0017
:10056000EC4EFEED4F2437F582740C3EF583E49398
:10057000FF3395E0FEEF24A1FFEE34E68F82F58392
:10058000E04401F0800C120C55500790E6A0E044C6
:0905900001F090E6A0E04480F0C7
:01059900223F
:030033000207FCC5
:0407FC0053D8EF32AD
:100100001201000200000040B404F10000000102EE
:1001100000010A0600020000004001000902270059
:10012000010100A0320904000003FF0000000705E0
:100130000202000200070584020002000705860291
:1001400000020009022000010100A03209040000A1
:1001500002FF0000000705040240000007058802B6
:10016000400000040309041003430079007000728A
:10017000006500730073007C0345005A002D005594
:100180000053004200200046005800320020004783
:1001900000500049004600200074006F0020004518
:1001A000007800740020004600490046004F0020FF
:1001B000004500780061006D0070006C0065002053
:1001C000007500730069006E00670020005300692D
:1001D000006E0067006C0065002000540072006132
:1001E000006E00730061006300740069006F006EB0
:0501F000007300000097
:100BEE00421A030000411A0200C104411A000041DA
:030BFE001A0100D9
:1008B80090E6007412F090E6027481F00000009057
:1008C800E603741EF000000090E670E04480F0003B
:1008D800000090E60174E3F000000090E61274A2B4
:1008E800F000000090E61374E2F000000090E614B7
:1008F80074E0F000000090E6157402F000000000BB
:10090800000090E6047480F00000007402F000001B
:10091800007404F00000007406F00000007408F091
:10092800000000E4F000000090E618F000000074F9
:1009380011F000000090E6197405F000000090E640
:080948001A740DF000000022FA
:010C5700227A
:020C4900D322B4
:020C4B00D322B2
:020C4D00D322B0
:10077C0090E680E030E71E90E6247402F000000062
:10078C0090E626F0000000E490E625F000000090D2
:10079C00E627F0801CE490E624F000000090E626AA
:1007AC00F000000090E6257440F000000090E62771
:0907BC00F090E6BAE0F51FD3222B
:100C020090E740E51FF0E490E68AF090E68B04F06E
:020C1200D322EB
:080C410090E6BAE0F51ED32293
:100C140090E740E51EF0E490E68AF090E68B04F05D
:020C2400D322D9
:020C4F00D322AE
:020C5100D322AC
:020C5300D322AA
:020C5500D322A8
:100B9200C0E0C083C082D2015391EF90E65D740140
:080BA200F0D082D083D0E032D4
:100BC200C0E0C083C0825391EF90E65D7404F0D020
:060BD20082D083D0E03266
:100BD800C0E0C083C0825391EF90E65D7402F0D00C
:060BE80082D083D0E03250
:1007C500C0E0C083C08290E680E030E70E85212539
:1007D500852226852927852A28800C852925852A8D
:1007E500268521278522285391EF90E65D7410F028
:0707F500D082D083D0E03276
:100BAA00C0E0C083C082D2035391EF90E65D74081F
:080BBA00F0D082D083D0E032BC
:100AB000C0E0C083C08290E680E030E70E8521254B
:100AC000852226852927852A28800C852925852A9F
:100AD000268521278522285391EF90E65D7420F02A
:070AE000D082D083D0E03288
:010C58003269
:010C59003268
:010C5A003267
:010C5B003266
:010C5C003265
:010C5D003264
:010C5E003263
:010C5F003262
:010C60003261
:010C61003260
:010C6200325F
:010C6300325E
:010C6400325D
:010C6500325C
:010C6600325B
:010C6700325A
:010C68003259
:010C69003258
:010C6A003257
:010C6B003256
:010C6C003255
:010C6D003254
:010C6E003253
:010C6F003252
:010C70003251
:010C71003250
:010C7200324F
:010C7300324E
:010C7400324D
:010C7500324C
:010C7600324B
:010C7700324A
:010C78003249
:010C79003248
:010C7A003247
:010C7B003246
:1009DC00AD07ED30E00D908100E0901A00F0A3E03F
:1009EC0054FEF0ED30E10D909100E0901A00F0A370
:1009FC00E054FDF0ED30E20D90A100E0901A00F013
:100A0C00A3E054FBF0ED30E30D90B100E0901A0040
:070A1C00F0A3E054F7F02203
:100A2300AD07ED30E00D908000E0901A00F0A3E0F8
:100A33004401F0ED30E10D909000E0901A00F0A336
:100A4300E04402F0ED30E20D90A000E0901A00F0D7
:100A5300A3E04404F0ED30E30D90B000E0901A0001
:070A6300F0A3E04408F022BB
:100B160090E682E030E004E020E60B90E682E030EA
:100B2600E119E030E71590E680E04401F07F147E9D
:0C0B360000120A6A90E680E054FEF022F3
:100AE70030050990E680E0440AF0800790E680E050
:100AF7004408F07FDC7E05120A6A90E65D74FFF019
:0F0B070090E65FF05391EF90E680E054F7F02214
:020B4200A90701
:100B4400AE2DAF2E8F828E83A3E064037017AD01A8
:100B540019ED7001228F828E83E07C002FFDEC3E24
:080B6400FEAF0580DFE4FEFF97
:010B6C002266
:100B6D0090E682E044C0F090E681F04387010000FA
:040B7D000000002252
:100A6A008E1C8F1D90E600E054187012E51D2401BB
:100A7A00FFE4351CC313F51CEF13F51D801590E632
:100A8A0000E05418FFBF100BE51D25E0F51DE51C1D
:100A9A0033F51CE51D151DAE1C7002151C4E6005B4
:060AAA00120B8180EE2218
:100B81007400F58690FDA57C05A3E582458370F987
:010B91002241
:03004300020800B0
:03005300020800A0
:10080000020B9200020BD800020BC200020BAA00DE
:100810000207C500020AB000020C5800020C590081
:10082000020C5A00020C5B00020C5C00020C5D0022
:10083000020C5E00020C5F00020C6000020C610002
:10084000020C6200020C5900020C6300020C6400EE
:10085000020C6500020C6600020C6700020C6800C6
:10086000020C6900020C5900020C5900020C5900DC
:10087000020C6A00020C6B00020C6C00020C6D0092
:10088000020C6E00020C6F00020C7000020C710072
:10089000020C7200020C7300020C7400020C750052
:1008A000020C7600020C7700020C7800020C790032
:0808B000020C7A00020C7B002F
:03000000020950A2
:0C095000787FE4F6D8FD75812E0209972F
:100C2600EB9FF5F0EA9E42F0E99D42F0E89C45F024
:010C3600229B
:10095C0002059AE493A3F8E493A34003F68001F212
:10096C0008DFF48029E493A3F85407240CC8C3339C
:10097C00C4540F4420C8834004F456800146F6DF6B
:10098C00E4800B0102040810204080900BEEE47E02
:10099C00019360BCA3FF543F30E509541FFEE49360
:1009AC00A360010ECF54C025E060A840B8E493A327
:1009BC00FAE493A3F8E493A3C8C582C8CAC583CA52
:1009CC00F0A3C8C582C8CAC583CADFE9DEE780BE0A
:010C010000F2
:00000001FF
