:0A0BFC0000010202030304040505D2
:10059A00E4F513F512F511F510F51BF51AF519F531
:1005AA0018C203C200C202C2011208B87E017F004B
:1005BA008E238F24752B01752C1275210175221C2F
:1005CA00752901752A43752D01752E6A90E680E01A
:1005DA0030E70E852125852226852927852A288028
:1005EA000C852925852A26852127852228EE54E08F
:1005FA0070030207157514007515807E017F008E41
:10060A00168F17C374A69FFF74019ECF2402CF349E
:10061A0000FEE48F0F8E0EF50DF50CF50BF50AF5BD
:10062A0009F508AF0FAE0EAD0DAC0CAB0BAA0AA9BB
:10063A0009A808C3120BEB502AE515250BF582E52C
:10064A0014350AF58374CDF0E4FAF9F8E50B2401C0
:10065A00F50BEA350AF50AE93509F509E83508F529
:10066A000880C0E4F50BF50AF509F508AF0FAE0EE0
:10067A00AD0DAC0CAB0BAA0AA909A808C3120BEB67
:10068A005037E517250BF582E516350AF583E0FFA5
:10069A00E515250BF582E514350AF583EFF0E4FA42
:1006AA00F9F8E50B2401F50BEA350AF50AE93509EB
:1006BA00F509E83508F50880B385142385152474EF
:1006CA00002480FF740134FFFEC3E52C9FF52CE55E
:1006DA002B9EF52BC3E5269FF526E5259EF525C31A
:1006EA00E5289FF528E5279EF527C3E5229FF522F1
:1006FA00E5219EF521C3E52A9FF52AE5299EF529DC
:10070A00C3E52E9FF52EE52D9EF52DD2E843D82080
:10071A0090E668E04409F090E65CE0443DF0D2AF30
:10072A0090E680E054F7F0538EF8C20330010512C8
:10073A000300C201300329120C0E5024C203120B0B
:10074A003220001690E682E030E704E020E1EF90E4
:10075A00E682E030E604E020E0E4120ADB120C1044
:05076A00120C1C80C709
:01076F002267
:1003000090E6B9E070030203DC1470030204852454
:10031000FE700302051A24FB70030203D614700357
:100320000203D01470030203C41470030203CA242E
:10033000056003020586120C12400302059290E646
:10034000BBE024FE602C14604724FD60161460316D
:1003500024067066E52390E6B3F0E52490E6B4F059
:10036000020592E52B90E6B3F0E52C90E6B4F0029E
:100370000592E52590E6B3F0E52690E6B4F0020597
:1003800092E52790E6B3F0E52890E6B4F0020592F6
:1003900090E6BAE0FF120B07AA06A9077B01EA491B
:1003A0004B600DEE90E6B3F0EF90E6B4F0020592EC
:1003B00090E6A0E04401F002059290E6A0E044013E
:1003C000F0020592120BD9020592120C0602059258
:1003D000120950020592120BC7020592120C14402A
:1003E0000302059290E6B8E0247F602B14603C2461
:1003F00002600302047BA200E433FF25E0FFA202B7
:10040000E4334F90E740F0E4A3F090E68AF090E602
:100410008B7402F0020592E490E740F0A3F090E6BE
:100420008AF090E68B7402F002059290E6BCE054EC
:100430007EFF7E00E0D3948040067C007D01800436
:100440007C007D00EC4EFEED4F24FCF582740B3EEB
:10045000F583E493FF3395E0FEEF24A1FFEE34E64D
:100460008F82F583E0540190E740F0E4A3F090E63A
:100470008AF090E68B7402F002059290E6A0E044C8
:1004800001F0020592120C16400302059290E6B8A4
:10049000E024FE601D2402600302059290E6BAE0AB
:1004A000B40105C20002059290E6A0E04401F0020A
:1004B000059290E6BAE0705990E6BCE0547EFF7E6B
:1004C00000E0D3948040067C007D0180047C007DA8
:1004D00000EC4EFEED4F24FCF582740B3EF583E4F8
:1004E00093FF3395E0FEEF24A1FFEE34E68F82F513
:1004F00083E054FEF090E6BCE05480FF13131354E5
:100500001FFFE0540F2F90E683F0E04420F0020537
:100510009290E6A0E04401F08078120C185073909D
:10052000E6B8E024FE60202402706790E6BAE0B4EA
:100530000104D200805C90E6BAE06402605490E668
:10054000A0E04401F0804B90E6BCE0547EFF7E00CA
:10055000E0D3948040067C007D0180047C007D0017
:10056000EC4EFEED4F24FCF582740B3EF583E493D4
:10057000FF3395E0FEEF24A1FFEE34E68F82F58392
:10058000E04401F0800C120C1A500790E6A0E04401
:0905900001F090E6A0E04480F0C7
:01059900223F
:030033000207FCC5
:0407FC0053D8EF32AD
:100100001201000200000040018002000000010214
:1001100003010A0600020000004001000902270056
:10012000010100A0320904000003FF0000000705E0
:100130000202000200070584020002000705860291
:1001400000020009022700010100A032090400009A
:1001500003FF0000000705020240000007058402BB
:100160004000000705860240000004030904100354
:10017000430079007000720065007300730018037B
:100180006900530065006E007300790073002D0054
:100190005800360034001003580036003400300098
:0801A0003000300031000000C6
:100BB300421A030000411A0200C104411A00004115
:030BC3001A010014
:1008B80090E6007412F090E6027481F00000009057
:1008C800E603741EF000000090E670E04480F0003B
:1008D800000090E60174E3F000000090E61274A2B4
:1008E800F000000090E61374E2F000000090E614B7
:1008F80074E0F000000090E6157402F000000000BB
:10090800000090E6047480F00000007402F000001B
:10091800007404F00000007406F00000007408F091
:10092800000000E4F000000090E618F000000074F9
:1009380011F000000090E6197405F000000090E640
:080948001A740DF000000022FA
:010C1C0022B5
:020C0E00D322EF
:020C1000D322ED
:020C1200D322EB
:1009500090E680E030E71E90E6247402F00000008C
:1009600090E626F0000000E490E625F000000090FC
:10097000E627F0801CE490E624F000000090E626D4
:10098000F000000090E6257440F000000090E6279B
:09099000F090E6BAE0F51FD32255
:100BC70090E740E51FF0E490E68AF090E68B04F0AA
:020BD700D32227
:080C060090E6BAE0F51ED322CE
:100BD90090E740E51EF0E490E68AF090E68B04F099
:020BE900D32215
:020C1400D322E9
:020C1600D322E7
:020C1800D322E5
:020C1A00D322E3
:100B5700C0E0C083C082D2015391EF90E65D74017B
:080B6700F0D082D083D0E0320F
:100B8700C0E0C083C0825391EF90E65D7404F0D05B
:060B970082D083D0E032A1
:100B9D00C0E0C083C0825391EF90E65D7402F0D047
:060BAD0082D083D0E0328B
:100A6D00C0E0C083C08290E680E030E70E8521258E
:100A7D00852226852927852A28800C852925852AE2
:100A8D00268521278522285391EF90E65D7410F07D
:070A9D00D082D083D0E032CB
:100B6F00C0E0C083C082D2035391EF90E65D74085A
:080B7F00F0D082D083D0E032F7
:100AA400C0E0C083C08290E680E030E70E85212557
:100AB400852226852927852A28800C852925852AAB
:100AC400268521278522285391EF90E65D7420F036
:070AD400D082D083D0E03294
:010C1D0032A4
:010C1E0032A3
:010C1F0032A2
:010C200032A1
:010C210032A0
:010C2200329F
:010C2300329E
:010C2400329D
:010C2500329C
:010C2600329B
:010C2700329A
:010C28003299
:010C29003298
:010C2A003297
:010C2B003296
:010C2C003295
:010C2D003294
:010C2E003293
:010C2F003292
:010C30003291
:010C31003290
:010C3200328F
:010C3300328E
:010C3400328D
:010C3500328C
:010C3600328B
:010C3700328A
:010C38003289
:010C39003288
:010C3A003287
:010C3B003286
:010C3C003285
:010C3D003284
:010C3E003283
:010C3F003282
:010C40003281
:10099900AD07ED30E00D908100E0901A00F0A3E082
:1009A90054FEF0ED30E10D909100E0901A00F0A3B3
:1009B900E054FDF0ED30E20D90A100E0901A00F056
:1009C900A3E054FBF0ED30E30D90B100E0901A0084
:0709D900F0A3E054F7F02247
:1009E000AD07ED30E00D908000E0901A00F0A3E03C
:1009F0004401F0ED30E10D909000E0901A00F0A37A
:100A0000E04402F0ED30E20D90A000E0901A00F01A
:100A1000A3E04404F0ED30E30D90B000E0901A0044
:070A2000F0A3E04408F022FE
:100ADB0090E682E030E004E020E60B90E682E03026
:100AEB00E119E030E71590E680E04401F07F147ED9
:0C0AFB0000120A2790E680E054FEF02272
:020B0700A9073C
:100B0900AE2DAF2E8F828E83A3E064037017AD01E3
:100B190019ED7001228F828E83E07C002FFDEC3E5F
:080B2900FEAF0580DFE4FEFFD2
:010B310022A1
:100B320090E682E044C0F090E681F0438701000035
:040B4200000000228D
:100A27008E1C8F1D90E600E054187012E51D2401FE
:100A3700FFE4351CC313F51CEF13F51D801590E675
:100A470000E05418FFBF100BE51D25E0F51DE51C60
:100A570033F51CE51D151DAE1C7002151C4E6005F7
:060A6700120B4680EE2296
:100B46007400F58690FDA57C05A3E582458370F9C2
:010B5600227C
:03004300020800B0
:03005300020800A0
:10080000020B5700020B9D00020B8700020B6F00CA
:10081000020A6D00020AA400020C1D00020C1E0058
:10082000020C1F00020C2000020C2100020C22000E
:10083000020C2300020C2400020C2500020C2600EE
:10084000020C2700020C1E00020C2800020C2900DA
:10085000020C2A00020C2B00020C2C00020C2D00B2
:10086000020C2E00020C1E00020C1E00020C1E00C8
:10087000020C2F00020C3000020C3100020C32007E
:10088000020C3300020C3400020C3500020C36005E
:10089000020C3700020C3800020C3900020C3A003E
:1008A000020C3B00020C3C00020C3D00020C3E001E
:0808B000020C3F00020C4000A5
:0300000002077084
:0C077000787FE4F6D8FD75812E0207B7F3
:100BEB00EB9FF5F0EA9E42F0E99D42F0E89C45F060
:010BFB0022D7
:10077C0002059AE493A3F8E493A34003F68001F2F4
:10078C0008DFF48029E493A3F85407240CC8C3337E
:10079C00C4540F4420C8834004F456800146F6DF4D
:1007AC00E4800B0102040810204080900BB3E47E1F
:1007BC00019360BCA3FF543F30E509541FFEE49342
:1007CC00A360010ECF54C025E060A840B8E493A309
:1007DC00FAE493A3F8E493A3C8C582C8CAC583CA34
:1007EC00F0A3C8C582C8CAC583CADFE9DEE780BEEC
:010BC600002E
:00000001FF
